:1000000085C09FC048C235C69CC09BC09AC099C0DD
:1000100098C097C072C695C094C093C092C0300378
:100020006F006E0065005400650073006C00610095
:100030002000550053004200200043006F006E0076
:10004000740072006F006C006C0065007200420367
:100050006F006E0065005400650073006C00610065
:100060002C0020004C004C00430068007400740019
:1000700070003A002F002F006F006E0065007400C2
:10008000650073006C0061002E0063006F006D005E
:10009000040309040902650002010000320904009A
:1000A000000001010000092401000109000101090B
:1000B00004010002010300000724010001410006C1
:1000C00024020101000624020202000924030103A4
:1000D00001020100092403020401010100090501D4
:1000E0000308000A00000525010101090581030834
:1000F000000A0000052501010312011001000000A3
:1001000008C016E4050001010200010011241FBE11
:10011000CFE5D2E0DEBFCDBF10E0A0E6B0E0E2EF79
:10012000F1E102C005900D92AA39B107D9F720E09C
:10013000AAE9B0E001C01D92AD3DB207E1F721D6BA
:1001400056C85ECFCF932091B2002E3101F120919D
:10015000B20024FF07C03091B30028E82327209382
:10016000B30003C02AE52093B200DC01E4EBF0E029
:10017000962F9E0F8D918193892F8E1B1816D4F385
:10018000C62F84EB90E070D1CC5FC093B200CF91CA
:100190000895CF93DF936091C300635067FDCDC096
:1001A0008091C000CCE0D0E0C81BD109C953DF4F1B
:1001B0008091BF00803118F4CE01F1D2BCC08D32E5
:1001C00009F0AAC0683009F0B6C083EC8093A7009C
:1001D0008AE58093610010929B002881822F8076AF
:1001E00021F0CE01CED2982F84C09A813C8110920A
:1001F000B0008981811113C02F71223051F4313840
:1002000041F49091B20081E09E3109F080E080934A
:10021000B0001092B10020EB30E092E065C0282FD2
:100220002D7F213081F491115CC0313809F059C023
:10023000813011F08EE101C08AE58093B2008BE439
:100240008093B3004EC0853019F49093C40049C028
:10025000863071F58B81813011F0823021F4CE012E
:100260007CD2982F21C08330F1F4911108C080E92D
:1002700090E09093C2008093C10094E015C091304B
:1002800041F48EE490E09093C2008093C10092E428
:100290000BC0923041F48EE190E09093C2008093C5
:1002A000C10090E301C090E080E480939B0021C0F6
:1002B000883081F0893019F49093C60007C08A30E5
:1002C00061F08B3071F48BE48093B3008AE5809306
:1002D000B20007C026EC30E002C020EB30E091E035
:1002E00003C020EB30E090E03093C2002093C100C7
:1002F00009C09F3F39F4888187FD9E8180E8809303
:100300009B0007C08F81811104C08E81891708F47A
:10031000982F909360000FC080919B0087FF0BC0C7
:10032000CE013BD28F3F21F48EE18093610003C068
:100330008111109260001092C3008091610084FFCF
:1003400057C0909160009F3F09F452C0C92F993067
:1003500008F0C8E09C1B909360008091A70098E88B
:1003600098279093A700CC2389F180919B0087FF69
:1003700008C06C2F88EA90E006D2C82F893090F52B
:1003800025C02091C1003091C20086FF0BC0A8EAB1
:10039000B0E0F9018C2F820F94919D9331968E13CA
:1003A000FBCF09C0D901E8EAF0E08C2F8E0F9D91B8
:1003B00091938E13FCCF4FEF4C0F50E04F5F5F4F88
:1003C000240F351F3093C2002093C1006C2F88EAA0
:1003D00090E04AD064E06C0F6C3041F08FEF809376
:1003E000600004C08FEF809360006EE16093610055
:1003F00084E196B3957049F48150D9F71092C40006
:100400001092BE009AE59093B200C1E08111C0E065
:1004100080919A008C1729F0C11101C044D2C09379
:100420009A00DF91CF910895AA9A8BB780628BBF13
:10043000E2EBF0E08BE481838AE580830895A82FC6
:10044000B92F80E090E041E050EA609530E009C0CB
:100450002D9182279795879510F084279527305EF8
:10046000C8F36F5FA8F30895EADF8D939D93089515
:10047000A6E088279927AA9569F00197E1F3B0993A
:10048000FCCFB09BFECF81E09927A6B3019611F077
:10049000A570D9F70895C498CF93CFB7CF93C395DC
:1004A000B09BE9F7B09B0BC0B09B09C0B09B07C0E5
:1004B000B09B05C0B09B03C0B09B01C0D8C00F92D9
:1004C000DF93C091C000DD27C953DF4F012EB09BE1
:1004D00003C0DF910F90E6CF2F930F931F934F939D
:1004E0002FEF4F6F06B300FB20F95F933F9350E06F
:1004F0003BE065C016B30126502950FDC89556B3A0
:10050000012700FB25F92F7306B3B1F05027102700
:1005100010FB26F906B22230F0F000C016B3012716
:1005200000FB27F90126502906B22430E8F54F7761
:10053000206816B30000F6CF50274F7D206206B228
:10054000102F000000C006B300265029102710FB12
:1005500026F906B2E2CF4F7B06B3206400C0DACFA3
:1005600001265029157006B269F14E7F2160012FD6
:1005700016B328C0002650294D7F06B22260102FE6
:1005800029C0012650294B7F06B22460012F2DC0BF
:1005900016B301265029477F2860000006B22EC0FE
:1005A0004F7E06B3206130C0422706B34993002630
:1005B0005029102706B24FEF10FB20F9297F16B300
:1005C00079F2157059F10126502906B2012700FB76
:1005D00021F9237F06B371F2002650293150D0F063
:1005E00006B2102710FB22F9277E16B351F201261E
:1005F0005029012700FB06B223F92F7C49F20000A5
:1006000006B3102710FB24F90026502906B22F79D3
:1006100039F270CF10E21ABF00271CC03B50319551
:10062000C31BD04010E21ABF0881033C21F10B34F8
:1006300011F12091BE001981110F1213EDCF4A81E3
:10064000441F093669F10D3211F0013E29F74F7050
:1006500009F0042F0093C5003F915F914F911F91C6
:100660000F912F91DF910F90CAB7C5FD18CFCF9191
:10067000CFBFCF9118952091C500222369F3109127
:10068000C300112379F534307AF13093C3002093FD
:10069000BF001091C0003BE0311B3093C00024C06C
:1006A0000091C3000130F4F40AE54F7049F4309131
:1006B000610034FD1AC000936100C7EAD0E019C0A0
:1006C0003091B20034FD11C00093B200C3EBD0E012
:1006D00010C0052710E000C021C0052710E0C89514
:1006E00008BB14C03AE501C032ED032EC0E0D0E0F3
:1006F00032E017B31560C09A08B317BB55E020E885
:100700004FEF20FF052708BB279517951C3F28F7BB
:1007100000004552B0F720FF0527279508BB179525
:100720001C3FB8F629913A9561F70A7F1091C400F1
:10073000110F08BBC250D04011F01093BE0010E260
:100740001ABF016017B31A7F402F4A7F54E05A95B1
:10075000F1F708BB17BB48BB7FCFFC018381813019
:1007600041F489EF90E09093C2008093C10082E150
:10077000089584E990E09093C2008093C10085E6DB
:1007800008958FEF0895FC01108211821282138266
:1007900014821582168287E0089581E008950F93F0
:1007A0001F93CF93DF93EC0188818F70893009F01C
:1007B00044C08981803909F071C09B818091A60075
:1007C00091110DC09A81981305C0DF91CF911F91AF
:1007D0000F9123C28091A400981360C047C081117B
:1007E0000CC01BD28A818093A6008B818093A500C8
:1007F000DF91CF911F910F91E0C01091A4001111D2
:1008000008C011D28A818093A4008B818093A300B9
:100810000FC00091A30001D206D21093A60000934E
:10082000A5008A818093A4008B818093A300C5D00A
:10083000DF91CF911F910F9160C1883089F48A8137
:100840009091A600891304C08981803839F5BDCF05
:100850009091A400891322C089818038F9F406C0E0
:100860008F3049F489818C3FC9F4D7D1DF91CF9182
:100870001F910F91D8C18B3089F48A8198E8980F25
:10088000923098F395E8980F923078F3873031F4EE
:100890008B81811101C081E080936400DF91CF9151
:1008A0001F910F910895DF92EF92FF920F931F9384
:1008B000CF93DF9380919C00811143C081E08093AE
:1008C0009C00E199FECFF89408E010E0C0E0D0E889
:1008D000DD2EDC0ED1BECCDD7C0184E3E81689E0A0
:1008E000F8060CF4CD2DD6950150110989F78FEF3C
:1008F0008C0F81BF0C2F10E00F5F1F4F21B730E02E
:10090000021713078CF0B4DD8453994097FF03C09E
:100910009195819591098E159F0514F4C1B77C01BD
:1009200081B78F5F81BFEACFC1BF789461B780E0A4
:1009300090E0DF91CF911F910F91FF90EF90DF90AA
:1009400048C4DF91CF911F910F91FF90EF90DF90FE
:10095000089580E187BBBB980895C49A0895C49810
:100960000895CF93DF939CED980F9B3308F5282FC4
:100970006CE02BD2C92FD0E0CC0FDD1FCC0FDD1FD8
:10098000C659DF4F822F90E084976CE070E029D247
:10099000FB01EB59FF4F608170E080E090E018D3DD
:1009A000288139814A815B8179D3E6D2CB0102C0AB
:1009B00080E090E0DF91CF910895CF92DF92EF92A7
:1009C000FF921FBC8091A600CCDF009709F490C075
:1009D0009C0140E050E060E472E48FE090E014D2CB
:1009E00069017A01CA01B90135E096958795779535
:1009F00067953A95D1F72091A50030E040E050E0AE
:100A000027D2B901CA012FE730E040E050E0FCD125
:100A1000253631054105510520F024E630E040E05F
:100A200050E0DA01C90163E0B695A79597958795DF
:100A30006A95D1F7B901660F771F660F771F860F8A
:100A4000971F9093A2008093A100C21AD30AE40AD0
:100A5000F50AD701C601B695A7959795879524E025
:100A6000CC0CDD1CEE1CFF1C2A95D1F78C0D9D1DB6
:100A7000AE1DBF1D811520E29207A105B10550F4FE
:100A800026E020BF55E0B695A795979587955A958E
:100A9000D1F72AC0811520E49207A105B10550F4D1
:100AA00027E020BF46E0B695A795979587954A958C
:100AB000D1F71AC0009721E0A207B10538F429E068
:100AC00020BF892F9A2FAB2FBB270EC0009724E0A1
:100AD000A207B10568F42BE020BF2AE0B695A795E0
:100AE000979587952A95D1F78EBD89B7806489BF80
:100AF000FF90EF90DF90CF900895CF92DF92EF922A
:100B0000FF9212BE8091A4002CDF009709F480C0F0
:100B10009C0140E050E060E472E48FE090E074D12A
:100B200069017A01CA01B90135E0969587957795F3
:100B300067953A95D1F72091A30030E040E050E06E
:100B400087D1B901CA012FE730E040E050E05CD125
:100B5000253631054105510520F024E630E040E01E
:100B600050E0DA01C90163E0B695A795979587959E
:100B70006A95D1F7B901660F771F660F771F860F49
:100B8000971F9093A00080939F00C21AD30AE40A93
:100B9000F50AD701C601B695A7959795879524E0E4
:100BA000CC0CDD1CEE1CFF1C2A95D1F78C0D9D1D75
:100BB000AE1DBF1D811520E49207A105B10550F4BB
:100BC00023E023BF46E0B695A795979587954A956C
:100BD000D1F71AC0009721E0A207B10538F424E04C
:100BE00023BF892F9A2FAB2FBB270EC0009724E07D
:100BF000A207B10568F425E023BF2AE0B695A795C2
:100C0000979587952A95D1F789BD89B7806189BF66
:100C1000FF90EF90DF90CF90089589B78F7B89BFC9
:100C20001092A600089589B78F7E89BF1092A40004
:100C30000895F894E199FECF80E090E0C2D28F3F12
:100C400009F081BF9FE088E10FB6F894A89581BDB7
:100C50000FBE91BDE9DBB89A80E0815041F0A895C4
:100C6000ECE1F0E13197F1F700C00000F6CFB89861
:100C7000089578941F920F920FB60F9211242F931C
:100C80003F934F935F936F937F938F939F93AF9314
:100C9000BF93EF93FF9361DE809164006091A100A8
:100CA0007091A20090E080D0A0E0B0E027E0B6957F
:100CB000A795979587952A95D1F70097A105B10536
:100CC00021F481E090E0A0E0B0E00197F1F747DE89
:100CD00088B78F7B88BF1FBCFF91EF91BF91AF9109
:100CE0009F918F917F916F915F914F913F912F9144
:100CF0000F900FBE0F901F90189578941F920F922F
:100D00000FB60F9211242F933F934F935F936F93DE
:100D10007F938F939F93AF93BF93EF93FF931DDECA
:100D20008091640060919F007091A00090E03CD0A1
:100D3000A0E0B0E027E0B695A795979587952A950E
:100D4000D1F70097A105B10521F481E090E0A0E082
:100D5000B0E00197F1F703DE88B78F7E88BF12BE3F
:100D6000FF91EF91BF91AF919F918F917F916F9183
:100D70005F914F913F912F910F900FBE0F901F9059
:100D80001895E7DD56DFB39B0AC088E48093A60080
:100D90008FE78093A50088E2809364000EDE78944C
:100DA000DEDDA895F6D9FDCF0024552704C0080E36
:100DB000591F880F991F009729F076956795B8F30A
:100DC0007105B9F7802D952F0895991B79E004C01E
:100DD000991F961708F0961B881F7A95C9F780957A
:100DE000089597FB072E16F4009406D077FD08D0DF
:100DF00081D007FC05D03EF4909581959F4F0895D2
:100E0000709561957F4F0895A1E21A2EAA1BBB1B16
:100E1000FD010DC0AA1FBB1FEE1FFF1FA217B307C6
:100E2000E407F50720F0A21BB30BE40BF50B661FDC
:100E3000771F881F991F1A9469F7609570958095A0
:100E400090959B01AC01BD01CF01089568940013FA
:100E5000E894A0E0B0E0EEE2F7E01DC0EFEFE7F9C4
:100E600059016A015E23550FEE08FE2C87019B0194
:100E7000AC019E23990F660B762FCB014FD0CDB7D7
:100E8000DEB7EAE024C02F923F924F925F926F92BA
:100E90007F928F929F92AF92BF92CF92DF92EF920A
:100EA000FF920F931F93CF93DF93CDB7DEB7CA1B8B
:100EB000DB0B0FB6F894DEBF0FBECDBF09942A88B6
:100EC000398848885F846E847D848C849B84AA845E
:100ED000B984C884DF80EE80FD800C811B81AA81EB
:100EE000B981CE0FD11D0FB6F894DEBF0FBECDBFB6
:100EF000ED010895AA1BBB1B51E107C0AA1FBB1F30
:100F0000A617B70710F0A61BB70B881F991F5A9595
:100F1000A9F780959095BC01CD010895DF93CF93FB
:100F20009F92A0E49A2E0024D001E001F0011695D2
:100F30000795F794E794D794C794B794A79448F487
:100F40001068A20FB31FC41FD51FE61FF71F081E8E
:100F5000191E220F331F441F551F661F771F881F3E
:100F6000991F9A9421F79D01AE01BF01C001112480
:100F70009F90CF91DF91089570D088F09F5790F0A7
:100F8000B92F9927B751A0F0D1F0660F771F881FAE
:100F9000991F1AF0BA95C9F712C0B13081F077D015
:100FA000B1E0089574C0672F782F8827B85F39F0B3
:100FB000B93FCCF3869577956795B395D9F73EF40D
:100FC00090958095709561957F4F8F4F9F4F0895B5
:100FD000E89409C097FB3EF49095809570956195D3
:100FE0007F4F8F4F9F4F9923A9F0F92F96E9BB2789
:100FF0009395F695879577956795B795F111F8CF05
:10100000FAF4BB0F11F460FF1BC06F5F7F4F8F4F6F
:101010009F4F16C0882311F096E911C0772321F065
:101020009EE8872F762F05C0662371F096E8862FFD
:1010300070E060E02AF09A95660F771F881FDAF754
:10104000880F9695879597F9089557FD9058440F06
:10105000551F59F05F3F71F04795880F97FB991F17
:1010600061F09F3F79F087950895121613061406D4
:10107000551FF2CF4695F1DF08C016161706180661
:10108000991FF1CF86957105610508940895E8943C
:10109000BB2766277727CB0197F908950AD080C030
:1010A00071D028F076D018F0952309F062C067C09F
:1010B000EFCFCBDFA8F39923D9F35523C9F3950FCD
:1010C00050E0551FAA27EE27FF27BB2700240894CE
:1010D000679520F4E20FF31FB41F0A1E220F331F7F
:1010E000441FAA1F6695A9F7779530F4F30FB41F34
:1010F0000A1E121E08F46395330F441FAA1F221FF5
:10110000769599F7879520F4B40F0A1E121E631F77
:10111000440FAA1F221F331F8695A9F7862F712D12
:10112000602D11249F5750408AF0E1F088234AF047
:10113000EE0FFF1FBB1F661F771F881F9150504087
:10114000A9F79E3F510570F014C0A2CF5F3FECF3AA
:10115000983EDCF3869577956795B795F795E79573
:101160009F5FC1F7FE2B880F911D9695879597F984
:10117000089597F99F6780E870E060E008959FEF19
:1011800080EC089500240A9416161706180609061E
:10119000089500240A9412161306140605060895ED
:1011A000092E0394000C11F4882352F0BB0F40F475
:1011B000BF2B11F460FF04C06F5F7F4F8F4F9F4FB5
:1011C0000895E199FECF9FBB8EBBE09A99278DB31E
:1011D0000895262FE199FECF1CBA9FBB8EBB2DBB75
:1011E0000FB6F894E29AE19A0FBE01960895F8942A
:0211F000FFCF2F
:1011F200FF5A40007F0102040810CDCC83429A9925
:101202008B42CDCC934266669C42CDCCA5429A9944
:10121200AF42CDCCB9420000C5429A99D0420000FB
:0A122200DD420000EA420000F8423D
:00000001FF
